:020000040800F2
:10000000280600200101000825010008270100083A
:10001000290100082B0100082D0100080000000044
:100020000000000000000000000000002F01000898
:1000300031010008000000003301000861050008DC
:1000400037010008370100083701000837010008B0
:1000500037010008370100083701000837010008A0
:100060003701000837010008370100083701000890
:100070003701000837010008370100083701000880
:100080003701000837010008370100083701000870
:100090003701000837010008370100083701000860
:1000A00037010008B106000837010008A50500085F
:1000B000C9060008D907000805090008370100082B
:1000C0003701000837010008370100083701000830
:1000D0003701000837010008370100083701000820
:1000E000370100083701000837010008DFF80CD09D
:1000F00000F02CF800480047250B000828060020D7
:100100000D488047DFF83400016841F4E0210160C8
:10011000BFF34F8FDFF82800DFF8281001600A488E
:1001200000477047FEE7FEE7FEE7FEE7FEE7FEE773
:10013000FEE7FEE7FEE7FEE72301000824ED00E00E
:100140000CED00E00003FA05ED000008064C074D39
:1001500006E0E06840F0010394E807009847103497
:10016000AC42F6D3FFF7C6FFF80B0008180C0008E6
:1001700070B5194C8320206000256560A560174884
:100180006060012000F048F861680843606014492D
:100190000D60086840F002000860206840F480307C
:1001A000206020688003FCD5206840F080702060CB
:1001B00020688001FCD5606820F003006060606802
:1001C00040F002006060606840F480006060086891
:1001D00040F01000086070BD0010024000841D0057
:1001E0000020024000487047001BB70000487047DD
:1001F00000A24A040549064A884202D005498842BD
:1002000001D110467047104670470000002C014095
:1002100000A24A0400340140012804D0B0F5807FD8
:1002200003DD012102E000202CE00021802801DD17
:10023000012200E000220A44402801DD012100E003
:1002400000210A44102801DD012100E000210A44B8
:10025000082801DD012100E000210A44042801DD15
:10026000012100E000210A44022801DD012100E013
:1002700000211144012801DD012000E00020084494
:10028000C01D0001702800D100207047012181406D
:1002900001480160704700001408014001218140BD
:1002A00001480160704700001008014001218140B1
:1002B0000148016070470000140C01400121814099
:1002C0000148016070470000100C0140012181408D
:1002D0000148416170470000001001400121814048
:1002E0000148016170470000001001400F4A536946
:1002F00043F001035361936943F4007393610C4A23
:10030000136843F480731360094B0A4A4433136142
:10031000516100219160916800F001004FF4565343
:1003200043EA401001439160704700000010024012
:10033000082401400000024038B5836843F480136C
:100340008360836823F460238360836801F007047B
:1003500043EA44438360124C002914D0012914D08D
:10036000022914D0032914D00E4C052915D0FF21E1
:10037000FF2907D0204600F081F80090BDF800006A
:100380004008208738BD0121F2E70221F0E7032170
:10039000EEE74FF080440221EAE70421E8E700009D
:1003A000002C0140000800402DE9F04105460E46B2
:1003B0002F4930488D4203D1816941F40071816138
:1003C0002D498D4203D1816941F48061816100240E
:1003D000FFF708FF0746FFF709FFB0FBF7F27000D1
:1003E000B0FBF2F0032801D8032120E00F2802D847
:1003F00001240F211BE01B2802D802241B2116E038
:10040000392802D80324392111E0532802D80424C2
:1004100053210CE06F2802D805246F2107E08F28B4
:1004200002D806248F2102E0072440F2DF1144EABB
:10043000C40040EA841040EA442040EA043040EA24
:10044000C43040EA844040EA4450E86040EA046036
:1004500040EAC4602861E86A20F47000E86219315B
:1004600051434808A96841F00101A960BDE8F08145
:100470000024014000100240002801402DE9F04115
:100480000D4604461146204600F0D2FA0327072302
:100490000626681E4FF0040C012D01D0022D12D14A
:1004A000218BC20007FA02F291432183228B0CEBCD
:1004B000C00103FA01F822EA08022283228B06FA1D
:1004C00001F10A432283032D01D0042D0FD1A18B0A
:1004D000ED1EEA009740B943A183A28B0CEBC50146
:1004E0008B409A43A283A28B8E403243A283228CFC
:1004F000012101EB800301FA03F39A432284228C49
:10050000800081400A4322840648844205D1B4F821
:10051000440040F40040A4F84400A08D401C80B288
:10052000BDE8F081002C01400149088070470000BF
:100530003C040040426B22F01F024263426B0A43BC
:100540004263704705498A6822F001028A60C860E8
:10055000886840F001008860704700000000024099
:100560000148006800470000A40000204FF0E0218F
:100570000A6942F004020A616FF07F42904204D39C
:100580000A6922F004020A61C0084861704700004D
:10059000024A11600249000108707047A40000205F
:1005A00023ED00E070B53B4908883B4C82073B4D8A
:1005B000A4F12006A4F1800018D50A8822F00202D6
:1005C0000A800178012901D1006A804728888107C3
:1005D000334802D40088208003E000882188401A34
:1005E0003080288880F00200288070BD0A88520779
:1005F00018D50A8822F004020A804178012901D125
:10060000406A804728888106264802D40088608096
:1006100003E000886188401A7080288880F02000FC
:10062000288070BD0A88120718D50A8822F00802AF
:100630000A808178032901D1806A80472888810552
:10064000194802D40088A08003E00088A188401ADD
:10065000B080288880F40070288070BD0A88D20697
:10066000FBD50A8822F010020A80C178012901D145
:10067000C06A8047288881040C4802D40088E08042
:1006800003E00088E188401AF080288880F4005058
:10069000288070BD102C014084000020202C0140D7
:1006A000342C0140382C01403C2C0140402C0140AE
:1006B0000348018821F001010180024800690047D8
:1006C000102C01400400002070B54FF08045288AAE
:1006D000C10740480AD0A989C90707D0298A21F053
:1006E000010129824069BDE870400047298A394CE0
:1006F0008A07384904F18804A4F12006497916D5FF
:100700002A8A22F002022A82012901D1006B804745
:10071000288C800702D4A88E208003E0A88E218830
:10072000401A3080288C80F00200288470BD2A8A0C
:10073000520716D52A8A22F004022A82012901D101
:10074000406B8047288C800602D4288F608003E0AD
:10075000288F6188401A7080288C80F020002884BF
:1007600070BD298A090717D5298A21F00801298235
:100770008179012901D1806B8047288C800502D4C2
:10078000A88FA08003E0A88FA188401AB080288C91
:1007900080F40070288470BD298AC906FBD5298A97
:1007A00021F010012982C179012901D1C06B804754
:1007B000288C800403D4B5F84000E08004E0B5F84C
:1007C0004000E188401AF080288C80F40050288492
:1007D00070BD00000400002070B543490888C207BE
:1007E00042480BD00A1F1288D20707D00A8822F08D
:1007F00001020A808069BDE8704000470A883B4CCE
:100800003B4D04F190049207A4F1200618D50A8804
:1008100022F002020A80017A012901D1006C80478E
:1008200028888107334802D40088208003E00088AC
:100830002188401A3080288880F00200288070BD0E
:100840000A88520718D50A8822F004020A80417AE1
:10085000012901D1406C804728888106264802D4AE
:100860000088608003E000886188401A70802888D2
:1008700080F02000288070BD0A88120718D50A88E9
:1008800022F008020A80817A012901D1806C804718
:1008900028888105194802D40088A08003E00088D8
:1008A000A188401AB080288880F40070288070BD2C
:1008B0000A88D206FBD50A8822F010020A80C17A83
:1008C000012901D1C06C8047288881040C4802D4DA
:1008D0000088E08003E00088E188401AF0802888E2
:1008E00080F40050288070BD1004004004000020F7
:1008F0002004004034040040380400403C04004020
:100900004004004070B543490888C20742480BD0F4
:100910000A1F1288D20707D00A8822F001020A8033
:10092000C069BDE8704000470A883B4C3B4D04F16C
:1009300098049207A4F1200618D50A8822F0020232
:100940000A80017B012901D1006D80472888810739
:10095000334802D40088208003E000882188401AB0
:100960003080288880F00200288070BD0A885207F5
:1009700018D50A8822F004020A80417B012901D19E
:10098000406D804728888106264802D40088608010
:1009900003E000886188401A7080288880F0200079
:1009A000288070BD0A88120718D50A8822F008022C
:1009B0000A80817B012901D1806D804728888105CB
:1009C000194802D40088A08003E00088A188401A5A
:1009D000B080288880F40070288070BD0A88D20614
:1009E000FBD50A8822F010020A80C17B012901D1BF
:1009F000C06D8047288881040C4802D40088E080BC
:100A000003E00088E188401AF080288880F40050D4
:100A1000288070BD1008004004000020200800401D
:100A200034080040380800403C08004040080040BE
:100A300070B504460D46194919488C4203D18169A5
:100A400041F400618161B4F1804F03D1C16941F08B
:100A50000101C16113498C4203D1C16941F0020116
:100A6000C16111498C4203D1C16941F00401C161E6
:100A7000FFF7BCFB06462046FFF7BCFBB6FBF0F0D9
:100A8000B5FBF0F0010C4A1CB0FBF2F02185401ED2
:100A9000A085A0841120208070BD0000002C0140A2
:100AA00000100240000400400008004004480168B3
:100AB0008907FCD5416841F00201416070470000A0
:100AC0000000024002E008C8121F08C1002AFAD143
:100AD00070477047002001E001C1121F002AFBD1BE
:100AE0007047000010B54020FFF72CFDFFF7DEFF38
:100AF0000948806820F0010007498860002408E068
:100B00002146064800F061F8054941F82400601CC0
:100B1000C4B2402CF4DB10BD00000240A80100204C
:100B2000A8000020FFF724FB48211348FFF73CFCF6
:100B300002211148FFF7FEFCE12203210E48FFF7D6
:100B4000FBFB0E490020FFF7D1FB0D48FFF70EFD20
:100B50000C490D480078FFF71BFD4FF0E0200069BD
:100B600040F001004FF0E02108610846006940F0C4
:100B70000200086100BFFEE700240140A801002038
:100B8000407E0500E50A0008000000204FF0000349
:100B90004FF0000C402B00D115E004B44DF804CD0B
:100BA00002FB03F202F03F0231F912C0624630F953
:100BB00013C00CFB02FC03F1010362465DF804CB99
:100BC000944404BCE6E760467047094901B5FFF765
:100BD000DDFF034601BC08B40649FFF7D7FF844692
:100BE00008BC83FB0321CCFB0C21084600BD7047E9
:100BF000180C0008980C0008180D000800000020D0
:100C0000A8000000C40A0008C00D0008A8000020C9
:100C100080050000D40A0008FF7F627F8A7D7D7A0C
:100C20004276E3706E6AF262825A34511D47573C35
:100C3000FC302825F9188C0C000074F307E7D8DA8B
:100C400004CFA9C3E3B8CCAE7EA50E9D92951D8FAF
:100C5000BE89838576829E8000809E807682838591
:100C6000BE891D8F92950E9D7EA5CCAEE3B8A9C31B
:100C700004CFD8DA07E774F300008C0CF9182825A4
:100C8000FC30573C1D473451825AF2626E6AE37061
:100C900042767D7A8A7D627F00008C0CF9182825C7
:100CA000FC30573C1D473451825AF2626E6AE37041
:100CB00042767D7A8A7D627FFF7F627F8A7D7D7A40
:100CC0004276E3706E6AF262825A34511D47573C95
:100CD000FC302825F9188C0C000074F307E7D8DAEB
:100CE00004CFA9C3E3B8CCAE7EA50E9D92951D8F0F
:100CF000BE89838576829E8000809E8076828385F1
:100D0000BE891D8F92950E9D7EA5CCAEE3B8A9C37A
:100D100004CFD8DA07E774F30300000000000000F6
:100D200000000000000000000000000000000000C3
:100D300000000000000000000000000000000000B3
:100D400000000000000000000000000000000000A3
:100D50000000000000000000000000000000000093
:100D60000000000000000000000000000000000083
:100D70000000000000000000000000000000000073
:100D80000000000000000000000000000000000063
:100D90000000000000000000000000000000000053
:100DA0000000000000000000000000000000000043
:100DB0000000000000000000000000000000000033
:04000005080000ED02
:00000001FF
